:1000000013C018C017C016C015C014C013C012C04A
:1000100011C010C072C1A4C0ABC0B6C0BEC0CBC0BE
:10002000D9C0DFC0E5C0FBC011241FBECFE9CDBFE2
:1000300002D0A2C1E5CFE199FECF20E081E02EBB46
:100040008CBB4DB34F3F09F025C12F3309F020C1C0
:10005000C4E0EFE0F0E008C0C23030F091E0930F70
:100060009295907F982B04C081E08C0F6BE051D16A
:10007000D1E0D20FDF73E199FECFDEBB9DBB84E2FE
:100080008CBB86E28CBBE199FECF2EBB84E18CBB9E
:1000900086E18CBB4F3F71F0CF0163E070E045D14A
:1000A000CC2349F0882309F40BC1823009F40AC13A
:1000B00065E009C181E062E0A12CC2E09EE197BB4E
:1000C00018BA8295807FA82FAA2990E020E0912C71
:1000D00050E040E030E00CE0BB24B394BFEF70E0B0
:1000E00081E08D0F8F73482E0F2EF4E25F2EF02DDE
:1000F0000F2EF6E26F2EF02D0F2EF4E17F2EF02D55
:100100000F2EF6E18F2EF02D12E13F5F631708F0FE
:10011000AAC04F5FD1F45F5F852F8F71B1F4A1103A
:1001200004C0CF5FCB3008F0D0C091100EC001C02A
:10013000C2E0E199FECF4EBAADBB5CBA6CBAE199B0
:10014000FECFDEBB7CBA8CBA9B2CCC2ED12CF60118
:100150003197EA30F10508F079C0E65FFF4F099466
:10016000252F2B2521702195922FC2E030E07BC0F6
:100170002B2D852F817050FF272F21959B2D8111CD
:10018000972F919530E06FC050FFA3C045FB222709
:1001900020F92195972F30E066C0852F837081303C
:1001A00041F008F4ACC0823009F49FC0833009F0FC
:1001B0004FC09B2FA9C0852F8370813009F497C051
:1001C00008F49FC0823021F0833009F490C042C00F
:1001D0009B2F90C050FD40C0242F2095922F30E0DF
:1001E00042C050FD7DC0242F2095942F30E03BC0AD
:1001F000852F8370813059F008F485C0823019F062
:10020000833051F02DC0242F9B2F30E02CC0242FA1
:1002100020959B2F30E027C0942F909575C0852F97
:100220008370813059F030F0823009F462C083303D
:1002300051F018C0242F972F30E015C0242F20959F
:10024000972F30E010C0942F909554C030E00BC031
:1002500030E009C030E007C0942F242F30E003C005
:1002600030E001C030E0211108BB80E0821301C002
:1002700018BA8F5F8F3FD1F7992309F448C018BB94
:1002800046C0891301C018BA8F5F8F3FD1F73DCFA9
:100290002F5FD5CEE42FF0E0F595E795F595E7953E
:1002A000F595E795F595E7953E2F842F8F7090E0B3
:1002B0006BE070E03AD0C82FE23008F0D5CECCCE5B
:1002C0006FE001C061E0AC2EF9CE992009F430CF87
:1002D00047CF45FB992790F99195272F30E0C5CF5F
:1002E000942F9095242F30E0BECF9B2F03C0972FE3
:1002F00001C0942F272F30E0B8CF9B2F05C0972F38
:1003000003C0972F01C0942F2B2F30E0ADCF80E09A
:10031000B8CF991B79E004C0991F961708F0961B77
:10032000881F7A95C9F78095089597FB072E16F4D4
:10033000009406D077FD08D00BD007FC05D03EF422
:10034000909581959F4F0895709561957F4F089581
:10035000AA1BBB1B51E107C0AA1FBB1FA617B707EB
:1003600010F0A61BB70B881F991F5A95A9F7809507
:0C0370009095BC01CD010895F894FFCFDA
:00000001FF
